:020000040000fa
:080000000002040000000000f2
:020000040000fa
:10000800cc020000ec0200000c0300002a030000f0
:100018004a0300006a0300008a03000090030000fe
:10002800b0030000cc310000f6250000f6250000e2
:10003800ce03000016320000f6250000f625000069
:10004800f6250000f6250000f6250000f62500003c
:10005800f6250000f625000024060000f62500001d
:10006800f6250000f6250000f6250000f62500001c
:1000780006060000f6250000f6250000f62500001b
:10008800f6250000f6250000f6250000b220000045
:1000980054080000a0380000f6250000f6250000ee
:1000a800f625000086230000f6250000f62500004e
:1000b800e423000060320000aa320000f6250000a8
:1000c800f6250000f6250000f6250000f6250000bc
:1000d800f6250000f6250000d4230000c0380000f3
:1000e800403a0000f6250000f6250000f62500003d
:1000f800f6250000f625000052380000f62500001d
:10010800f6250000f6250000f6250000f62500007b
:10011800f6250000f6250000f6250000f62500006b
:10012800f6250000f6250000f6250000f62500005b
:10013800f6250000f6250000f6250000f62500004b
:10014800f6250000f6250000f6250000f62500003b
:10015800f6250000f6250000f6250000f62500002b
:10016800f6250000f6250000f6250000f62500001b
:10017800f6250000f6250000f6250000f62500000b
:10018800f6250000f6250000f6250000f6250000fb
:10019800f6250000f6250000f6250000f6250000eb
:1001a800f6250000f6250000f6250000f6250000db
:1001b800f6250000f6250000f6250000f6250000cb
:1001c800f6250000f6250000f6250000f6250000bb
:1001d800f6250000f6250000f6250000f6250000ab
:1001e800f6250000f6250000f6250000f62500009b
:1001f800f6250000f6250000f6250000f62500008b
:10020800f6250000f6250000f6250000f62500007a
:10021800f6250000f6250000f6250000f62500006a
:10022800f6250000f6250000f6250000f62500005a
:10023800f6250000f6250000f6250000f62500004a
:10024800f6250000f6250000f6250000f62500003a
:10025800f6250000f6250000f6250000f62500002a
:020000040000fa
:100400002f3621000eff27000e018800000000009b
:1004100000012000200288000c000700607c2400fe
:10042000010020000f000700000020000000e00095
:100430000200320000000200000000001c44020024
:10044000000000000040da000000fe000001200073
:100450000000e0000200320000202000900188002f
:1004600000000600a1028800800078000000eb0078
:100470001a003700e280400054a0b4009101ba0095
:10048000e280400054a0b4009102ba00e280400033
:1004900054a0b4000002eb00472bde00f507b200c9
:1004a000a6018800602ce10008003a000049eb003a
:1004b0000201e800020039003420ec0002f0a00044
:1004c0008301e900f9ff3e00040037006128e100e4
:1004d000010032000082eb00040007001101ba00a5
:1004e0000200e000e3ff3a000000060004d0a30091
:1004f000e20f49001c003900810278003549ba003a
:100500000201e800020039003420ec0002f0a000f3
:100510008301e9000f0032002549ba000201e8001a
:10052000020039003420ec0002f0a0008301e90051
:10053000080032000400e0000600320015c9ba00cd
:100540000201e800020039003420ec0002f0a000b3
:100550008301e9008180e80054a0b4000300e000ba
:10056000e2ff3a00000006009102ba000559780047
:100570008301e900f7ff3200c82ade000559780040
:100580008301e900f3ff32000400e000f1ff3200d4
:1005900011d9ba00eeff37003600f800809fbe0088
:1005a000829fbe00849fbe00869fbe000000fa00ae
:1005b000c028a90010002000542407000080fa0081
:1005c0004f03be004f02be004f01be004f00be00f1
:1005d0003600f900004006003600f800809fbe009b
:1005e000829fbe00849fbe00869fbe000000fa006e
:1005f000c068a90070002000442407000080fa00b1
:100600004f03be004f02be004f01be004f00be00b0
:100610003600f900004006003600f800809fbe005a
:10062000829fbe00849fbe00869fbe000000fa002d
:1006300070002000352407000080fa004f03be0040
:100640004f02be004f01be004f00be003600f90051
:10065000004006003600f800809fbe00829fbe006a
:10066000849fbe00869fbe000000fa00c048a9001b
:1006700070002000252407000080fa004f03be0010
:100680004f02be004f01be004f00be003600f90011
:10069000004006003600f800809fbe00829fbe002a
:1006a000849fbe00869fbe000000fa00c088a9009b
:1006b00070002000152407000080fa004f03be00e0
:1006c0004f02be004f01be004f00be003600f900d1
:1006d000004006003600f800809fbe00829fbe00ea
:1006e000849fbe00869fbe000000fa00c0a8a9003b
:1006f00070002000052407000080fa004f03be00b0
:100700004f02be004f01be004f00be003600f90090
:10071000004006000000fa00c3a8a900ffff370050
:100720003600f800809fbe00829fbe00849fbe00fe
:10073000869fbe000000fa00c0a8a900700020003b
:10074000f22307000080fa004f03be004f02be00f4
:100750004f01be004f00be003600f9000040060009
:100760003600f800809fbe00829fbe00849fbe00be
:10077000869fbe000000fa000008a9006400070080
:100780000080fa004f03be004f02be004f01be00c2
:100790004f00be003600f900004006003600f800a9
:1007a000809fbe00829fbe00849fbe00869fbe00c9
:1007b0000000fa000088a9005c0007000080fa0031
:1007c0004f03be004f02be004f01be004f00be00ef
:1007d0003600f900004006000200fa000042eb007b
:1007e000044f7800620007008f0007008040eb0094
:1007f000d0c2b300d70007008040eb00e0c2b300d6
:10080000d4000700d1c0b300c0c2b300d1000700bc
:10081000a1c0b30010c3b300ce0007008040eb00be
:1008200080c3b300cb0007008040eb00f0c2b300f0
:10083000c80007009a00070081c0b300d0c2b3000f
:10084000c400070011c0b300d0c2b3009c00070071
:1008500000027800044f780001c8b300e0c2b30082
:10086000bc0007009e4278000582fb00680262001f
:10087000e00f520004003a009471800061026200af
:10088000e00f5200d7ff3a00020007000080fa0094
:10089000000006000000fa002088a9000088a900d6
:1008a00001eba900842a20006458880001cba8002d
:1008b00001aba900045880000440a1000450a1002d
:1008c00004588800045880000400a0000410a1000f
:1008d00004588800016ba800b4c5b3000440780038
:1008e00002ebb70064de2d000402e8002458880003
:1008f0000002eb003458880064002000745888001f
:1009000001eba8002088a8000080fa000000060083
:100910000000fa0001eba800aa000700240f200045
:10092000441588000080fa00000006000000fa006c
:10093000a8000700949a8000e00f520004003a00db
:10094000e4dd2d000402e80024588800030037008d
:1009500064de2d000402e80024588800949a800088
:100960000400a200949a88000080fa0000000600ab
:100970000000fa00302ea900306ea900308ea900c8
:10098000304ea8009300070015348000f40f2c00af
:100990008482620004002200048272001434880001
:1009a0002534800004fc2f0004826200f401b300af
:1009b00024348800d536800004f82f008482620039
:1009c0002404200004827200d43688000b68a90039
:1009d0002b68a900a382a900a362a900a342a900d1
:1009e000a2a2a800a2e2a900a1a2a900a302a900b4
:1009f000a2c2a800a322a900141580000420a00010
:100a00000430a0000440a0001415880014158000d4
:100a10000400a0000410a10014158800a1e2a800a1
:100a20000080fa00000006000400fa000002eb005b
:100a30001407980011c0b3000040eb00200007002d
:100a400000027800044f7800100037000077210082
:100a500001002000202407001e0290000402e8008c
:100a6000140798001e029000ea0f520002003a009c
:100a7000200020002523070011c0b3000040eb0038
:100a80000f00070000027800044f78001e42780033
:100a9000fb4f4200edff3a000080fa000000060024
:100aa0000000fa00300ea8002008a900c208a90022
:100ab0000008a9002008a8000080fa000000060035
:100ac0000600fa0040479800514798004e429000b7
:100ad000f6c3b3008642620004c8b30004c27200c9
:100ae00024479800370007002e409000260007009a
:100af0005e429000e14f520006003a000040eb00d9
:100b000021000700004278000482fb00040f7800f7
:100b10000b0037000040eb001b000700004278008c
:100b20000482fb004822dd00040f78000040eb0047
:100b300015000700004278000482fb001e0f7200bf
:100b4000240007001e027800040078000080fa00ec
:100b5000000006000200fa00004f780011479800dc
:100b600018000700f5c3b3001ec2620004407800fd
:100b7000050007001e409000030007001500070055
:100b80000080fa00000006000200fa00004f780022
:100b90009e4278000582fb0044158800000000009a
:100ba0000415800061026200e00f5200fcff320079
:100bb0004415800004427800044078000080fa0068
:100bc000000006000000fa00342ea9000080fa00a0
:100bd000000006000000fa00342ea8000080fa0091
:100be000000006000000fa00949a8000e00f520016
:100bf00002003a0064de2d0001003700e4dd2d0024
:100c0000040078000080fa00000006003600f800ba
:100c1000809fbe00829fbe00849fbe00869fbe0054
:100c20000000fa000288a900f60007000080fa0020
:100c30004f03be004f02be004f01be004f00be007a
:100c40003600f900004006003600f800809fbe0024
:100c5000829fbe00849fbe00869fbe000000fa00f7
:100c600001c8a900ee0007000080fa004f03be0093
:100c70004f02be004f01be004f00be003600f9001b
:100c8000004006000000fa001a0007006700070095
:100c9000ce00070071c0b30000c2b300a700070078
:100ca0008040eb0020c2b300a40007008040eb00ae
:100cb00010c2b300a100070081c0b30020c2b3007e
:100cc0009e00070001c2b30030c2b3009b000700c2
:100cd0008040eb0040c2b3009800070080c0eb00ea
:100ce00000c2b30095000700320007000080fa0040
:100cf000000006000000fa00504ea90050aea90006
:100d0000508ea900506ea800ac00070095348000fa
:100d1000f40f2c00848262000460200004827200c0
:100d2000943488009534800004fc2f000482620013
:100d30005400b300943488004536800004f82f0036
:100d400084826200340620000482720044368800e7
:100d50000148a9002148a9004382a9004362a900d3
:100d60004342a90042a2a80042e2a90041a2a90070
:100d70004302a90042c2a8004322a9001412800025
:100d80000420a0000430a0000440a0001412880039
:100d9000141280000400a0000410a10014128800a6
:100da00041e2a8000148a9002148a9000080fa00fa
:100db000000006000000fa0021c8a90001c8a9002f
:100dc00084242000e458880011cba80011aba900ae
:100dd000845880000440a1000450a1008458880079
:100de000845880000400a0000410a10084588800ea
:100df000116ba800a4c0b3000440780012ebb70048
:100e0000e4de2d000402e800a45888000002eb0094
:100e1000b458880064002000f458880011eba80042
:100e200021c8a8000080fa00000006000400fa00b3
:100e30000002eb001407980011c0b300f0c0b3002b
:100e40001900070000027800044f780010003700f6
:100e500000772100010020001f2307001e029000e0
:100e60000402e800140798001e029000ea0f5200e6
:100e700002003a00300020002422070011c0b30015
:100e80000040eb000800070000027800044f7800e3
:100e900034cdb3009e42780084cf5200ecff3a007c
:100ea0000080fa00000006000600fa0040479800a3
:100eb000514798004e429000f6c3b300864262004c
:100ec00004c8b30004c2720024479800370007002a
:100ed0002e409000260007005e429000e14f520035
:100ee00006003a000040eb002100070000427800b5
:100ef0000482fb00040f78000b0037000040eb0079
:100f00001b000700004278000482fb004822dd003d
:100f1000040f78000040eb00150007000042780045
:100f20000482fb001e0f7200240007001e027800de
:100f3000040078000080fa00000006000200fa00b9
:100f4000004f78001147980018000700f5c3b30060
:100f50001ec2620004407800050007001e40900099
:100f600003000700150007000080fa0000000600db
:100f70000200fa00004f78009e4278000582fb00d4
:100f80004412880000000000041280006102620028
:100f9000e00f5200fcff320044128000044278004f
:100fa000044078000080fa00000006000000fa000b
:100fb000544ea9000080fa00000006000000fa006c
:100fc000544ea8000080fa00000006000000fa005d
:100fd000310ea8002288a90005358000f40f2800f2
:100fe0008482620004802400048272000435880038
:100ff000c228a9000288a9002288a8000080fa005f
:10100000000006000000fa0011eba800e7ff07004f
:10101000840e2000441288000080fa0000000600c0
:101020000000fa00e5ff0700443521001442780073
:10103000e04f520004003a0064df2d000402e80093
:10104000a458880003003700e4de2d000402e80005
:10105000a458880044352100144278000404a200fa
:101060000440780054f3b7000080fa000000060046
:101070000200fa003200f80001c0fe0044352100f1
:10108000144278000482fb00c322dd00e4de2d0060
:10109000048f42003200f9001e027800040078003c
:1010a0000080fa0000000600801f7800841f78008e
:1010b0000000fa000388a900548b80000400a000ff
:1010c000548b880014c0b30004407800d7f2b700f6
:1010d0000080fa004f0278004f00780000400600c0
:1010e0000000fa00889fbe000000eb00b40a070071
:1010f0006000b8003c0f0700800478006000b80072
:10110000390f0700000478006000b800360f0700b0
:1011100000027800890178000801780084007800d6
:10112000601e2100150b07000000eb00aa0a070053
:101130006000b8002c0f0700800478006000b80041
:10114000290f0700000478006000b800260f070090
:101150000002780089017800080178008400780096
:10116000201d2100ed0a07000000eb00a00a070087
:101170006000b8001c0f0700800478006000b80011
:10118000190f0700000478006000b800160f070070
:101190000002780089017800080178008400780056
:1011a000a01f21000d0b0700970a07000002eb00ab
:1011b000548b88006022b800348b8800458b8800ef
:1011c000260907006022b800048988001589880074
:1011d0006022b80024898800358988006022b80020
:1011e00044898800558988004f04be000080fa00b9
:1011f000000006000000fa00548b800061026200cb
:10120000e00f52000d003200548b80006202620039
:10121000e00f5200020032002009070002003700f0
:101220002d00070062040700558b8000e4ff2f00ab
:1012300004826200548b8800010037000000000027
:101240000080fa00000006000000fa00841121006e
:10125000140290004822dd008402780084112100ed
:10126000140290004822de0004827200840278009a
:10127000841121001502980084112100240290009d
:101280004822dd00840278008411210024029000ad
:101290004822de000482720084027800841121005a
:1012a0002502980084112100340290004822dd00bc
:1012b0008402780084112100340290004822de006c
:1012c00004827200840278008411210035029800a3
:1012d0000080fa00000006000000fa00889fbe00af
:1012e0008a9fbe003200f80001c0fe003dfe0700ec
:1012f00000027800051121003404be002405be0060
:10130000889abe008a92be0059ff0700000278004a
:10131000851121003404be002405be00889abe0059
:101320008a92be00841121009402900004152100cd
:10133000140290008482520084112100150298004a
:1013400084112100a40290000415210024029000c1
:10135000848252008411210025029800841121000a
:10136000b4029000041521003402900084825200df
:101370008411210035029800e31721002211210079
:10138000a1132100100020001a0e0700c31821002d
:1013900042112100c113210010002000150e07008a
:1013a000a319210062112100e11321001000200087
:1013b000100e0700642d210014427800e04f520007
:1013c000730032006489800075898000020020006b
:1013d000632c24000400be00aa1107000002be0016
:1013e0000404be008413210014029000cfa2de008a
:1013f0000400be00411107000002be000401be004f
:101400000800be009e0f07000002be000200200080
:10141000832c24000400be00801007000002be00e0
:101420006489880075898800848980009589800096
:1014300002002000632c24000400be00911107006c
:101440000002be000404be008413210024029000a8
:10145000cfa2de000400be00281107000002be007b
:101460000401be000800be00850f07000002be0098
:1014700002002000832c24000400be006710070037
:101480000002be008489880095898800a4898000b4
:10149000b589800002002000632c24000400be00f7
:1014a000781107000002be000404be00841321006e
:1014b00034029000cfa2de000400be000f1107002e
:1014c0000002be000401be000800be006c0f070051
:1014d0000002be0002002000832c24000400be0095
:1014e0004e1007000002be00a4898800b58988005c
:1014f00064898000758980000400be00c310070065
:101500000002be00840278008413210015029800b6
:1015100084898000958980000400be00bb1007000c
:101520000002be0084027800841321002502980086
:10153000a4898000b58980000400be00b3100700b4
:101540000002be0084027800841321003502980056
:10155000831a2100a2112100211421001000200073
:10156000a40d0700631b2100c211210041142100ba
:10157000100020009f0d0700431c2100e2112100f4
:1015800061142100100020009a0d07000c003700a4
:1015900084132100051121003504be002505be007d
:1015a000089abe000a92be00041421008511210091
:1015b0003504be002505be00089abe000a92be0092
:1015c0003200f9000414210014029000cfa2de00c2
:1015d0000400be00c91007000002be00048f88008e
:1015e000158f88000414210024029000cfa2de0091
:1015f0000400be00c11007000002be00a48f8800d6
:10160000b58f88000414210034029000cfa2de00c0
:101610000400be00b91007000002be00449088001c
:1016200055908800201d210008000700601e210041
:101630008a010700a01f2100d70207004f05be0046
:101640004f04be000080fa00000006003400fa00db
:10165000889fbe00101f98006022b800048fbe0053
:101660006022b80024079800350798001e1a9000e1
:101670001402be0002002000031224000400be0079
:10168000001107000002be0064079800750798006b
:101690001e1a900024039000b4039000060f9800d7
:1016a000170f98001e1a900044039000d403900076
:1016b000260f9800370f9800841321001402900021
:1016c000cfa2de000400be008c1007000002be00a6
:1016d00002002000033824000400be00cf0f0700e2
:1016e0000002be00440f9800550f9800841321009b
:1016f00024029000cfa2de000400be007f1007008d
:101700000002be0002002000033824000400be00d6
:10171000c20f07000002be00640f9800750f98000a
:101720008413210034029000cfa2de000400be002a
:10173000721007000002be000200200003382400df
:101740000400be00b50f07000002be000417980099
:10175000151798006011b8004e089000de08900040
:101760002610070000027800e00f520012003a0035
:101770006011b8006e089000fe0890001f1007006e
:1017800000027800e00f52000b003a006011b80030
:101790000e1090009e1090001810070000027800b4
:1017a000e00f520004003a006022b800440798009d
:1017b00055079800250037004e099000de0990007b
:1017c0004e089000de089000ae1007000002be0038
:1017d0000404be000e1190009e1190000e109000a7
:1017e0009e109000a71007000002be000401be007a
:1017f0000800be00a20e07000002be000400be00ea
:10180000d41007000002be000401be006e08900064
:10181000fe089000f70e07000002be000200200044
:10182000433324000400be00961007000002be00ef
:10183000b2fd2000930424000400be00770f0700cf
:101840000002be0044079800550798001e1a900039
:10185000840a90007402900005f0a20002002000ab
:10186000c32824000400be00861007000002be004a
:1018700002002000a34724000400be00670f0700f9
:101880000002be00241798003517980002002000bf
:10189000a34724002e109000be1090005f0f070099
:1018a0000002be000403be00149280002592800056
:1018b0000401be000600be00710e07000002be005b
:1018c000149288002592880014928000259280004e
:1018d000b2f32d00f3f723000400be0069100700e7
:1018e0000002be000404be000240210033a0230019
:1018f0004e009000de009000621007000002be0063
:101900000401be000800be005d0e07000002be001c
:1019100014928800259288001e1a9000940a900064
:10192000a42d2100144278000402fb00048242002e
:10193000441798004e129000cfa2de000400be00b3
:10194000ee0f07000003be00149280002592800075
:101950000401be000600be00480e07000002be00e3
:1019600054179800651798005e119000ee119000d2
:101970006e009000fe009000421007000002be00c2
:1019800024079800350798005e129000ee12900030
:1019900005f0a10018c0b30002002000030a2400d3
:1019a0000400be00950f070000027800e00f52000f
:1019b000010035000044eb00e04f540040003200cd
:1019c0005e119000ee1190000e0890009e089000ad
:1019d0002c1007000002be0002002000a3472400d4
:1019e0000400be000d0f07000002be000403be008d
:1019f00034928000459280000401be000600be00c3
:101a00001f0e07000002be00349288004592880035
:101a1000349280004592800018c0b300020020007c
:101a200003122c000400be00740f070000027800af
:101a3000e00f5200010035000044eb00e04f54007d
:101a4000050032000400200005122c0034928800aa
:101a50004592880011003700349280004592800042
:101a600018c0b30002002000031224000400be00ce
:101a7000640f070000027800e00f520001003c00f4
:101a80000044eb00e04f540004003200040020004a
:101a90000512240034928800459288003492800018
:101aa000459280000401be002e009000be00900010
:101ab000f30d07000002be002407980035079800c8
:101ac00018c0b3000200200083342c002e009000c8
:101ad000be009000490f070000027800e00f52009e
:101ae000010035000044eb00e04f540005003200d7
:101af0000400200085342c00240798003507980046
:101b00001000370018c0b300020020008334240006
:101b10002e009000be0090003a0f070000027800ef
:101b2000e00f520001003c000044eb00e04f540085
:101b300004003200040020008534240024079800ab
:101b4000350798002e119000be1190002e009000d5
:101b5000be009000c90d07000002be007417980077
:101b6000051f98002e0a9000be0a900005f0a20002
:101b70007e1190008e1990000400be00c10f070076
:101b80000002be00048fbe00648b8000cfa2de0086
:101b90000400be00590f07000002be0018c0b300c9
:101ba0001e01be000400be00140f070000027800f2
:101bb000e00f5200010035000044eb00e04f5400fc
:101bc00006003200648b8000cfa2de000400be005d
:101bd0004a0f07000002be00048fbe00648b800025
:101be0000402ea00cfa2de000400be00430f07009b
:101bf0000002be0018c0b3001e01be000400be00fb
:101c0000000f070000027800e00f520001003c00c6
:101c10000044eb00e04f540007003200648b80006a
:101c20000402ea00cfa2de000400be00330f07006a
:101c30000002be00048fbe001e00be00f30e0700af
:101c40000002be00840278001e1a9000650298000f
:101c50004f04be000080fa00000006003400fa00c5
:101c6000889fbe00101f98006022b80044079800ab
:101c7000550798006022b800048fbe001e1a90001d
:101c80001402be0002002000031224000400be0063
:101c90007c0f07000002be006407980075079800db
:101ca0001e1a900024039000b4039000060f9800c1
:101cb000170f98001e1a900044039000d403900060
:101cc000260f9800370f980084132100140290000b
:101cd000cfa2de000400be00080f07000002be0015
:101ce00002002000033824000400be004b0e070051
:101cf0000002be00440f9800550f98008413210085
:101d000024029000cfa2de000400be00fb0e0700fc
:101d10000002be0002002000033824000400be00c0
:101d20003e0e07000002be00640f9800750f980079
:101d30008413210034029000cfa2de000400be0014
:101d4000ee0e07000002be0002002000033824004f
:101d50000400be00310e07000002be000417980008
:101d6000151798006011b8004e089000de0890002a
:101d7000a20e070000027800e00f520012003a00a5
:101d80006011b8006e089000fe0890009b0e0700de
:101d900000027800e00f52000b003a006011b8001a
:101da0000e1090009e109000940e07000002780024
:101db000e00f520004003a006022b80024079800a7
:101dc00035079800250037006e099000fe09900045
:101dd0006e089000fe0890002a0f07000002be0067
:101de0000404be000e1190009e1190000e10900091
:101df0009e109000230f07000002be000401be00e9
:101e00000800be001e0d07000002be000400be0058
:101e1000500f07000002be000401be004e089000f3
:101e2000de089000730d07000002be0002002000d3
:101e3000433324000400be00120f07000002be005e
:101e4000b2fd2000930424000400be00f30d07003f
:101e50000002be0024079800350798001e1a900063
:101e6000840a90007402900002002000c32824001d
:101e70000400be00030f07000002be0002002000a5
:101e8000a34724000400be00e40d07000002be00ca
:101e9000241798003517980002002000a34724005b
:101ea0002e109000be109000dc0d07000002be0056
:101eb0000403be00d4918000e59180000401be00bf
:101ec0000600be00ee0c07000002be00d4918800a0
:101ed000e5918800d4918000e5918000b2f32d0057
:101ee000f3f723000400be00e60e07000002be0068
:101ef0000404be000240210033a023002e00900005
:101f0000be009000df0e07000002be000401be000c
:101f10000800be00da0c07000002be00d491880061
:101f2000e59188001e1a9000940a9000942d2100db
:101f3000144278000402fb00048242004417980017
:101f40004e129000cfa2de000400be006b0e070010
:101f50000003be00d4918000e59180000401be0022
:101f60000600be00c50c07000002be005417980012
:101f7000651798005e119000ee1190006e009000c1
:101f8000fe009000bf0e07000002be00048fbe00de
:101f90005e129000ee12900005f0a10018c0b30090
:101fa00002002000030a24000400be00130e0700f4
:101fb00000027800e00f5200010035000044eb0001
:101fc000e04f54003e0032005e119000ee11900090
:101fd0000e0890009e089000aa0e07000002be00a6
:101fe00002002000a34724000400be008b0d070060
:101ff0000002be000403be00f49180000592800040
:102000000401be000600be009d0c07000002be00d9
:10201000f491880005928800f49180000592800078
:1020200018c0b3000200200083242c000400be006e
:10203000f20d070000027800e00f520001003500a9
:102040000044eb00e04f5400050032000400200083
:1020500085242c00f4918800059288001100370037
:10206000f49180000592800018c0b30002002000a7
:10207000832424000400be00e20d07000002780063
:10208000e00f520001003c000044eb00e04f540020
:10209000040032000400200085242400f49188000c
:1020a00005928800f4918000059280000401be0032
:1020b0001e00be00720c07000002be00048fbe00ae
:1020c00018c0b3000200200063392c001e00be00bf
:1020d000ca0d070000027800e00f52000100350031
:1020e0000044eb00e04f54000400320004002000e4
:1020f00065392c00048fbe000e00370018c0b300f5
:1021000002002000633924001e00be00bd0d070040
:1021100000027800e00f520001003c000044eb0098
:10212000e04f540003003200040020006539240011
:10213000048fbe002e119000be1190001e00be0044
:102140004e0c07000002be0074179800051f98008f
:102150007e1190008e1990002e089000be0890000d
:10216000480e07000002be0044079800550798007b
:102170004e009000de009000a40d07000002be009b
:10218000840278001e1a9000650298004f04be0079
:102190000080fa00000006002000fa00881f780086
:1021a000700f98006022b800240798003507980047
:1021b0006022b800048fbe007e0a90001402be00a8
:1021c00002002000031224000400be002d0e0700b0
:1021d0000002be0044079800550798007e0a900050
:1021e00044039000d4039000660798007707980096
:1021f0007e0a9000840a9000740290000200200081
:10220000c32824000400be001e0e07000002be000a
:1022100002002000a34724000400be00ff0c0700ba
:102220000002be00040f9800150f98000200200065
:10223000a34724000e0890009e089000f70c0700aa
:102240000002be000403be00b4918000c59180006e
:102250000401be000600be00090c07000002be001b
:10226000b4918800c59188007e0a9000140a9000fd
:1022700084427800b42d21001442780004c2420048
:10228000445798004e5290000402fb00cfa2de009b
:102290000400be00990d07000003be00b491800049
:1022a000c59180000401be000600be00f30b0700cc
:1022b0000002be00340f9800450f98003e099000c0
:1022c000ce0990004e009000de009000ed0d07005a
:1022d0000002be00048fbe0018c0b3000200200040
:1022e00083342c001e00be00440d0700000278005d
:1022f000e00f5200010035000044eb00e04f5400b5
:10230000040032000400200085342c00048fbe003d
:102310000e00370018c0b3000200200083342400f0
:102320001e00be00370d070000027800e00f5200cb
:1023300001003c000044eb00e04f54000300320079
:102340000400200085342400048fbe000e09900094
:102350009e0990001e00be00c80b07000002be00d0
:10236000540f9800650f98005e099000ee099000e8
:102370006e009000fe009000c20d07000002be003b
:1023800024079800350798002e009000be009000aa
:102390001e0d07000002be00840278007e0a900035
:1023a000650298004f0478000080fa0000000600e3
:1023b0000000fa00889fbe008a9fbe008c9fbe006e
:1023c000948f800044918800948f80000402ea007a
:1023d00054918800948f800064918800948f8000cd
:1023e0000402ea0074918800f48e800084918800d1
:1023f000f48e80000402ea009491880034908000fa
:102400000402ea00a491880044918000e522b8000b
:10241000e00f52000700340044918000e522b8002c
:1024200005322000850f52000800340004322000dd
:102430000600370044918000e522b80005ce2f0049
:10244000850f520001003d0004ce2f00449188000a
:1024500054918000e522b800e00f520007003400dc
:1024600054918000e522b80005322000850f52000b
:102470000800340004322000060037005491800028
:10248000e522b80005ce2f00850f520001003d0067
:1024900004ce2f005491880064918000e522b8009a
:1024a000e00f52000700340064918000e522b8007c
:1024b00005322000850f520008003400043220004d
:1024c0000600370064918000e522b80005ce2f0099
:1024d000850f520001003d0004ce2f00649188005a
:1024e00074918000e522b800e00f5200070034002c
:1024f00074918000e522b80005322000850f52005b
:102500000800340004322000060037007491800077
:10251000e522b80005ce2f00850f520001003d00d6
:1025200004ce2f007491880084918000e00f520047
:102530000600340084918000251c2000850f520085
:1025400007003400241c200005003700849180001f
:10255000e5e32f00850f520001003d00e4e32f006a
:102560008491880094918000e00f520006003400ae
:1025700094918000251c2000850f52000700340034
:10258000241c20000500370094918000e5e32f0013
:10259000850f520001003d00e4e32f009491880074
:1025a000a4918000e522b800e00f5200070034003b
:1025b000a4918000e522b800758b8000850f520041
:1025c000090034000502780007003700a49180005c
:1025d000e522b800758b80008502ea00850f520065
:1025e00001003d0005027800a49188003597800025
:1025f000848b8000848242004491800004824200e7
:102600008402780084152100050a7800459780002f
:10261000848b800084825200549180000482520096
:1026200084027800841521001502980055978000d7
:10263000848b800084825200649180000482520066
:102640008402780084152100250298006597800097
:10265000848b800084824200749180000482420056
:10266000840278008415210035029800842d210011
:10267000144278000482fb00c222dd0084918000b5
:102680000482420004024200840278003475200073
:1026900004824200048b8800842d210014427800bb
:1026a0000482fb00c222dd0094918000048242007b
:1026b0000402420084027800347520000482420043
:1026c000148b8800a5918000c4af200004824200d2
:1026d000248b88002417210014427800e04f520018
:1026e0000d00320024172100144278000482fb0000
:1026f000868b800055012000110009000583d80059
:1027000080027800850f5200010036000502780033
:10271000044278000d00370024172100144278008d
:102720000482fb00858b80000503ea005501200030
:10273000110009000583d80080027800850f52003f
:10274000010031000502780004427800044078005e
:1027500072f1b7008415210014027800cfa2de00c8
:102760000400be00650c07000004be0074978000e2
:10277000050020000400be00630c07000005be0039
:102780007597800034978000048252000500200075
:102790000400be005c0c07000006be00858b8000b4
:1027a00054012000110009008482d8000002780042
:1027b0008402780024172100144278000482fb0070
:1027c00004824200050020000400be004e0c0700f9
:1027d0000002be0002002000832c24000400be0082
:1027e0008e0b07000002be000401be0000002000a6
:1027f00001f82300a10a07000002be000401be0088
:102800000c00be009f0c07000002be000401be00c9
:102810000a00be00990a07000002be001ac0b300f9
:102820000401be000800be00f60b0700000278009d
:10283000e00f520001003c000045eb00e04f550066
:102840003100320074978000050020000400be00b3
:102850002d0c07000004be0075978000349780009f
:1028600004825200050020000400be00260c070070
:102870000005be00858b8000540120001100090076
:102880008482d80000027800840278002417210096
:10289000144278000482fb000482420005002000fc
:1028a0000400be00180c07000002be000200200059
:1028b000832c24000400be00580b07000002be0059
:1028c0000401be000000200001f823006b0a07008d
:1028d0000002be000401be000a00be00690c070031
:1028e0000002be000401be000800be00630a07002b
:1028f0000002be000400be00c40b07000002be00c0
:10290000040278005f00370084152100140278006b
:10291000cfa2de000400be00f80b07000004be00da
:1029200034978000050020000400be00f60b07006d
:102930000005be00759780003497800084825200a5
:10294000868b800054012000110009000483d80008
:102950000002780004037800241721001442780054
:102960000482fb0004025300842ab8000500200002
:102970000400be00e40b07000002be0002002000bd
:10298000832c24000400be00240b07000002be00bc
:102990000401be000a00be00390a07000002be00a2
:1029a0001ac0b3000401be000800be00930b07006c
:1029b00000027800e00f5200010035000045eb00f6
:1029c000e04f5500250032003497800005002000bc
:1029d0000400be00cc0b07000004be007597800009
:1029e0003497800084825200868b8000540120003e
:1029f000110009000483d800000278000403780065
:102a000024172100144278000482fb0004025300c2
:102a1000842ab800050020000400be00ba0b07009d
:102a20000002be0002002000832c24000400be002f
:102a3000fa0a07000002be000401be000800be0042
:102a40000f0a07000002be000400be006f0b070063
:102a50000002be00040278000a003700841521003d
:102a600014027800cfa2de000400be00a30b070012
:102a70000002be000400be00640b07000002be009e
:102a80000402780085152100840a7800841521004d
:102a900014029000cfa2de000400be00970b0700d6
:102aa0000004be0044978000050020000400be0022
:102ab000950b07000005be004597800084978000b5
:102ac00084825200868b800054012000110009008e
:102ad0000483d80000027800040378002417210042
:102ae000144278000482fb0004025300842ab800d8
:102af000050020000400be00830b07000002be009a
:102b000002002000832c24000400be00c30a07003a
:102b10000002be000401be000a00be00d709070083
:102b20000002be001ac0b3000401be000800be00cf
:102b3000340b070000027800e00f520001003c0057
:102b40000045eb00e04f550025003200449780001f
:102b5000050020000400be006b0b07000004be004f
:102b6000459780008497800084825200868b800085
:102b700054012000110009000483d80000027800ed
:102b80000403780024172100144278000482fb001b
:102b900004025300842ab800050020000400be008f
:102ba000590b07000002be0002002000832c240005
:102bb0000400be00990a07000002be000401be0026
:102bc0000800be00ad0907000002be000400be0000
:102bd0000e0b07000002be000402780077003700e9
:102be0008415210014029000cfa2de000400be0074
:102bf000420b07000004be008497800005002000ff
:102c00000400be00400b07000005be004597800091
:102c10008497800004825200050020000400be005a
:102c2000390b07000006be00858b80005401200090
:102c3000110009008482d800000278008402780024
:102c400024172100144278000482fb000482420011
:102c5000050020000400be002b0b07000002be0090
:102c600002002000832c24000400be006b0a070031
:102c70000002be000401be000000200001f8230095
:102c80007e0907000002be000401be000c00be0069
:102c90007c0b07000002be000401be000a00be005b
:102ca000770907000002be001ac0b3000401be008d
:102cb0000800be00d10a070000027800e00f5200b1
:102cc000010035000045eb00e04f550031003200b7
:102cd00084978000050020000400be000a0b070056
:102ce0000004be0045978000849780000482520053
:102cf000050020000400be00030b07000005be0015
:102d0000858b800054012000110009008482d800c6
:102d10000002780084027800241721001442780011
:102d20000482fb0004824200050020000400be0073
:102d3000f50a07000002be0002002000832c2400d8
:102d40000400be00350a07000002be000401be00f8
:102d50000000200001f82300480907000002be001f
:102d60000401be000a00be00460b07000002be00c0
:102d70000401be000800be00410907000002be00b9
:102d80000400be00a10a07000002be000402780091
:102d90000a0037008415210014029000cfa2de0043
:102da0000400be00d50a07000002be000400be00f9
:102db000960a07000002be00040278008515210073
:102dc000940298008415210024029000cfa2de0016
:102dd0000400be00c90a07000004be00549780002a
:102de000050020000400be00c70a07000005be0061
:102df000559780009497800084825200868b8000d3
:102e000054012000110009000483d800000278005a
:102e10000403780024172100144278000482fb0088
:102e200004025300842ab800050020000400be00fc
:102e3000b50a07000002be0002002000832c240017
:102e40000400be00f50907000002be000401be0038
:102e50000a00be00090907000002be001ac0b30044
:102e60000401be000800be00660a070000027800e8
:102e7000e00f520001003c000045eb00e04f550020
:102e80002500320054978000050020000400be0099
:102e90009d0a07000004be005597800094978000ab
:102ea00084825200868b80005401200011000900aa
:102eb0000483d8000002780004037800241721005e
:102ec000144278000482fb0004025300842ab800f4
:102ed000050020000400be008b0a07000002be00af
:102ee00002002000832c24000400be00cb09070050
:102ef0000002be000401be000800be00df0807009b
:102f00000002be000400be00400a07000002be002e
:102f10000402780077003700841521002402900015
:102f2000cfa2de000400be00740a07000004be0049
:102f300094978000050020000400be00720a07007c
:102f40000005be00559780009497800004825200cf
:102f5000050020000400be006b0a07000006be004a
:102f6000858b800054012000110009008482d80064
:102f700000027800840278002417210014427800af
:102f80000482fb0004824200050020000400be0011
:102f90005d0a07000002be0002002000832c24000e
:102fa0000400be009d0907000002be000401be002f
:102fb0000000200001f82300b00807000002be0056
:102fc0000401be000c00be00ae0a07000002be00f5
:102fd0000401be000a00be00a90807000002be00ee
:102fe0001ac0b3000401be000800be00030a0700b7
:102ff00000027800e00f5200010035000045eb00b0
:10300000e04f550031003200949780000500200009
:103010000400be003c0a07000004be005597800073
:103020009497800004825200050020000400be0036
:10303000350a07000005be00858b80005401200082
:10304000110009008482d800000278008402780010
:1030500024172100144278000482fb0004824200fd
:10306000050020000400be00270a07000002be0081
:1030700002002000832c24000400be006709070022
:103080000002be000401be000000200001f8230081
:103090007a0807000002be000401be000a00be005c
:1030a000780a07000002be000401be000800be004e
:1030b000730807000002be000400be00d309070029
:1030c0000002be00040278000a00370084152100c7
:1030d00024029000cfa2de000400be00070a070011
:1030e0000002be000400be00c80907000002be00c6
:1030f0000402780085152100a4029800841521009f
:1031000034029000cfa2de000400be00fb090700dd
:103110000004be00a4978000050020000400be004b
:10312000f90907000005be00858b800054012000ce
:10313000110009008482d80000027800840278001f
:1031400024172100144278000482fb00048242000c
:10315000050020000400be00eb0907000002be00cd
:1031600002002000832c24000400be002b0907006d
:103170000002be000401be000000200001f8230090
:103180003e0807000002be006011b8000400be0047
:103190003c0a07000002be000401be000a00be0097
:1031a000360807000002be001ac0b3000401be00ca
:1031b0000800be009309070000027800e00f5200eb
:1031c00001003c000045eb00e04f55002a003200b2
:1031d000a4978000050020000400be00ca09070073
:1031e0000004be00858b80005401200011000900fe
:1031f0008482d8000002780084027800241721001d
:10320000144278000482fb00048242000500200082
:103210000400be00bc0907000002be00020020003e
:10322000832c24000400be00fc0807000002be003e
:103230000401be000000200001f823000f08070071
:103240000002be006011b8000400be000d0a0700b5
:103250000002be000401be000800be00070807000f
:103260000002be000400be00680907000002be00a4
:10327000040278005f0037008415210034029000ba
:10328000cfa2de000400be009c0907000004be00bf
:1032900064978000050020000400be009a09070022
:1032a0000005be00a59780006497800084825200cc
:1032b000868b800054012000110009000483d8008f
:1032c00000027800040378002417210014427800db
:1032d0000482fb0004025300842ab8000500200089
:1032e0000400be00880907000002be0002002000a2
:1032f000832c24000400be00c80807000002be00a2
:103300000401be000a00be00dd0707000002be0087
:103310001ac0b3000401be000800be003709070050
:1033200000027800e00f5200010035000045eb007c
:10333000e04f550025003200649780000500200012
:103340000400be00700907000004be00a5978000bd
:103350006497800084825200868b80005401200094
:10336000110009000483d8000002780004037800eb
:1033700024172100144278000482fb000402530049
:10338000842ab800050020000400be005e09070082
:103390000002be0002002000832c24000400be00b6
:1033a0009e0807000002be000401be000800be0027
:1033b000b30707000002be000400be0013090700a7
:1033c0000002be00040278000a00370084152100c4
:1033d00034029000cfa2de000400be0047090700bf
:1033e0000002be000400be00080907000002be0083
:1033f0000402780085152100b4029800841521008c
:1034000094027800b48b80008482420084152100ed
:10341000050a78008415210094029000c48b800076
:103420008482420084152100150298008415210031
:10343000a4029000d48b8000848242008415210075
:103440002502980084152100b4029000e48b8000ce
:1034500084824200841521003502980084152100e1
:10346000140278008402780076978000b48b800084
:1034700004024300848f52000400360075978000d8
:10348000b48b8000048242000800370084152100bc
:103490001402780036978000b58b800085024300c7
:1034a000850f5200010031000502780085152100ca
:1034b000840a7800841521001402900084027800a8
:1034c00046978000c48b800004024300848f520022
:1034d0000400360045978000c48b800004824200bf
:1034e00008003700841521001402900086978000a0
:1034f000c58b800085024300850f5200010031001a
:103500000502780085152100940298008415210099
:10351000240290008402780056978000d48b8000ab
:1035200004024300848f5200040036005597800047
:10353000d48b8000048242000800370084152100eb
:103540002402900096978000d58b8000850243006e
:10355000850f520001003100050278008515210019
:10356000a40298008415210034029000840278009f
:10357000a6978000e48b800004024300848f5200f1
:1035800004003600a5978000e48b8000048242008e
:1035900008003700841521003402900066978000ef
:1035a000e58b800085024300850f52000100310049
:1035b0000502780085152100b4029800058b800073
:1035c00064ea2000848f52000200340064ea200084
:1035d000048b8800158b800064ea2000848f5200e1
:1035e0000200340064ea2000148b8800058b800000
:1035f00024752000848f520002003c0034752000a6
:10360000048b8800158b800024752000848f520065
:1036100002003c0034752000148b8800842d2100aa
:1036200014427800e94f520004003e003475200037
:10363000048b880034752000148b8800011621004b
:10364000801521009f0307004f06be004f05be00f6
:103650004f04be000080fa00000006000000fa00df
:103660000388a9002388a9000002eb000409880050
:103670002021a900040980000440a1000450a000fa
:1036800004098800943a2000e408880021e1a80099
:103690002388a8000080fa00000006000000fa005d
:1036a000889fbe008a9fbe004ef50700000278008a
:1036b000051121003404be002405be00889abe0016
:1036c0008a92be006af60700000278008511210088
:1036d0003404be002405be00889abe008a92be0053
:1036e000749080000402e800749088007590800057
:1036f000f43f2000848f5200360036000411210070
:10370000140290006123b90084908000959080009d
:103710000602420087824a008490880095908800c3
:1037200004112100240290006123b900a4908000bc
:10373000b59080000602420087824a00a49088006b
:10374000b590880004112100340290006123b90073
:10375000c4908000d59080000602420087824a0013
:10376000c4908800d5908800841121001402900034
:103770006123b900e4908000f590800006024200c9
:1037800087824a00e4908800f59088008411210027
:10379000240290006123b9000491800015918000fb
:1037a0000602420087824a00049188001591880031
:1037b00084112100340290006123b900249180001b
:1037c000359180000602420087824a0024918800d9
:1037d0003591880075908000f47f2000848f52001e
:1037e000520036008490800095908000c62cdd0049
:1037f0004a22de0004827400caaade008402780035
:103800008414210015029800a4908000b5908000d7
:10381000462ddd004a22de0004027500caaade0041
:10382000840278008414210025029800c49080004e
:10383000d5908000c62ddd004a22de00048275008e
:10384000caaade00840278008414210035029800a0
:10385000e4908000f5908000462bdd004a22de00d7
:1038600004027300caaade00840278000415210055
:10387000150298000491800015918000462cdd000f
:103880004a22de0004027400caaade008402780024
:1038900004152100250298002491800035918000b4
:1038a000c62cdd004a22de0004827400caaade00b3
:1038b000840278000415210035029800558b8000a1
:1038c000d4ff2f0004826200548b88000002eb00ba
:1038d000749088006022b800c4908800d590880059
:1038e000c4908000d5908000a4908800b590880096
:1038f000a4908000b5908000849088009590880006
:103900006022b800249188003591880024918000bd
:103910003591800004918800159188000491800001
:1039200015918000e4908800f59088004f05be0056
:103930004f04be000080fa00000006000000fa00fc
:10394000548b8000040078000080fa00000006001c
:103950000000fa0024002000548b88000080fa0048
:10396000000006000200fa00000f78001e02780036
:103970000442780004407800d8f2b7000080fa00d2
:10398000000006000200fa00000f78009e02780096
:10399000241c2000842ab80084027800240320001c
:1039a000110009008482d80000027800648b88002e
:1039b0000080fa00000006000200fa00000f780004
:1039c0001e027800f422b800748b88000080fa0090
:1039d000000006000200fa00000f78001e027800c6
:1039e000f522b800848b88000080fa0000000600f1
:1039f0000200fa00000f78001e027800f522b800dd
:103a0000b48b88000080fa00000006000200fa0073
:103a1000000f78001e027800f522b800c48b8800e1
:103a20000080fa00000006000200fa00000f780093
:103a30001e027800f522b800d48b88000080fa00be
:103a4000000006000200fa00000f78001e02780055
:103a5000f522b800e48b88000080fa000000060020
:103a60000200fa00004f78001e40780072f1b700a3
:103a70000080fa00000006000200fa00000f780043
:103a80001e027800e922b800743ab000a48b8800c6
:103a9000a48b8000344888000080fa0000000600f3
:103aa0000200fa00000f78001e027800044278003d
:103ab00004407800d9f2b7000080fa000000060048
:103ac0000200fa00000f78001e027800044278001d
:103ad00004407800daf2b7000080fa000000060027
:103ae0000200fa00000f78001e02780004427800fd
:103af00004407800dbf2b7000080fa000000060006
:103b00000200fa00000f78001e0278003497880047
:103b10000080fa00000006000200fa00000f7800a2
:103b20001e027800449788000080fa00000006001a
:103b30000200fa00000f78001e02780054978800f7
:103b40000080fa00000006000200fa00000f780072
:103b50001e027800649788000080fa0000000600ca
:103b60000200fa00000f78001e02780074978800a7
:103b70000080fa00000006000200fa00000f780042
:103b80001e027800849788000080fa00000006007a
:103b90000200fa00000f78001e0278009497880057
:103ba0000080fa00000006000200fa00000f780012
:103bb0001e027800a49788000080fa00000006002a
:103bc0000200fa00000f78001e02ea00c48f88008d
:103bd0000080fa00000006000200fa00000f7800e2
:103be0001e027800248f88000080fa000000060082
:103bf0000200fa00000f78001e02ea0064908800bc
:103c00000080fa00000006000000fa00a4c72d00a2
:103c100003f02f000200210061052000e0172100c1
:103c200064040700e017210058040700e4bc2d00dd
:103c300003f02f000200210061052000c0182100c0
:103c40005c040700c01821005004070024b22d00b6
:103c500003f02f000200210061052000a0192100bf
:103c600054040700a01921004804070064a72d0090
:103c700003f02f000200210061052000801a2100be
:103c80004c040700801a210040040700a49c2d006a
:103c900003f02f000200210061052000601b2100bd
:103ca00044040700601b210038040700e4912d0044
:103cb00003f02f000200210061052000401c2100bc
:103cc0003c040700401c2100300407000080fa007b
:103cd000000006000000fa008413210004007800b0
:103ce0000080fa00000006000000fa000414210021
:103cf000040078000080fa00000006000000fa00ce
:103d0000642d2100144278000404a20004407800cd
:103d1000d6f2b7000080fa00000006000800fa00a2
:103d2000000f7800110798002207980033079800c9
:103d30001e009000fe0407000002be001e03780073
:103d4000048bbe002e009000f90407000002be00a4
:103d50001e03780024039800350398003e0090006d
:103d6000f30407000002be001e037800440398001d
:103d7000550398000080fa00000006000800fa00d1
:103d8000000f780011079800220798003307980069
:103d90001e009000e60407000002be001e0378002b
:103da000048bbe002e009000e10407000002be005c
:103db0001e03780024039800350398003e0090000d
:103dc000db0407000002be001e03780044039800d5
:103dd000550398000080fa00000006000800fa0071
:103de000000f780011079800220798003307980009
:103df0001e009000ce0407000002be001e037800e3
:103e0000048bbe002e009000c90407000002be0013
:103e10001e03780024039800350398003e009000ac
:103e2000c30407000002be001e037800440398008c
:103e3000550398000080fa00000006000400fa0014
:103e4000000f7800110798001e0290009e02780073
:103e5000150a98000080fa00000006000200fa002f
:103e60008415210025e42000150298008415210006
:103e700005642000350298008415210025e4200007
:103e8000250298008415210005642000050a7800a9
:103e900080152100630107008438210013002000f1
:103ea00012002000110020000000eb008116070026
:103eb00084152100e560200015029800841521007a
:103ec00045e720003502980084152100e5602000b8
:103ed000250298008415210045e72000050a780096
:103ee000801521004f0107008438210013002000b5
:103ef000120020008000eb00100020006d1607006b
:103f000014c0b300144798008f0037000000eb0086
:103f100094fe07000042eb00044f78007100370068
:103f20009e02fb0044832000842ab800cfa2de005a
:103f30000400be00710607000002be00d2cc2c00b7
:103f4000c3e423000400be00ce0607000002be004a
:103f50000401be000000220041562400c7040700ef
:103f60000002be000400be00280607000002be00da
:103f70008402780084152100150298008015210024
:103f80002801070000382c00911c2000d2160700e1
:103f90009e02fb0044832000842ab800cfa2de00ea
:103fa0000400be00550607000002be00d2cc2c0063
:103fb000c3e423000400be00b20607000002be00f6
:103fc00002002000834c24000400be00ac04070063
:103fd0000002be000400be000c0607000002be0086
:103fe0008402780084152100350298008015210094
:103ff0000c01070000382c00911c2000b6160700a9
:104000009e02fb0044832000842ab800cfa2de0079
:104010000400be00390607000002be00d2cc2c000e
:10402000c3e423000400be00960607000002be00a1
:104030000401be0000002200415624008f04070046
:104040000002be000400be00f00507000002be0032
:104050008402780084152100250298008015210033
:10406000f000070000382c00911c20009a16070071
:104070009e02fb0044832000842ab800cfa2de0009
:104080000400be001d0607000002be00d2cc2c00ba
:10409000c3e423000400be007a0607000002be004d
:1040a00002002000834c24000400be0074040700ba
:1040b0000002be000400be00d40507000002be00de
:1040c0008402780084152100050a780080152100fb
:1040d000d400070000702800313920007e16070048
:1040e0001e4fe8001e427800e44f52008cff34005f
:1040f0008415210005642000050a7800841521003c
:1041000025e42000150298008415210025e42000f4
:1041100025029800841521000564200035029800ce
:1041200080152100bf00070034eea90000e0200048
:10413000717220006816070034eea8001e4290003d
:104140000442e800144798001e429000e14f5200dc
:104150006eff34000000eb0002fe07000080fa0052
:10416000000006000000fa000368a9000080fa00c1
:10417000004006000200fa000002eb00040f780085
:10418000312ea800314ea800957180000420200037
:1041900004826200e00f52000d003a009571800029
:1041a0000440200004826200e00f520008003a0040
:1041b00000f8240021012000471607001e0fe80028
:1041c000140320009e027800848f5200eeff34001a
:1041d0000c0007007e0007005e000700e46020007e
:1041e0003464880044e7200074618800e4602000a3
:1041f0007462880044e72000746388000080fa003d
:10420000000006000000fa004e0ea900400ea900b2
:104210004e2ea900402ea9004e6ea900406ea900a6
:104220004e4ea900404ea9004e8ea900408ea90016
:104230004eaea90040aea9004eeea90040eea90086
:104240004ecea90040cea90001eca900c427290048
:1042500024608800146080000400a1000410a00005
:104260000420a00014608800212ca900210ca900c2
:104270000002eb00346188000002eb0074618800ea
:104280001461800004a0a00004b0a00014618800a4
:1042900023eca80023cca80023aca900238ca90000
:1042a000412ca900410ca9000002eb0034628800f7
:1042b0000002eb00746288001462800004a0a00079
:1042c00004b0a0001462880043eca80043cca8000e
:1042d00043aca900438ca900612ca900610ca90082
:1042e0000002eb00346388000002eb007463880076
:1042f0001463800004a0a00004b0a0001463880030
:1043000063eca80063cca80063aca900638ca9008f
:10431000812ca900810ca9000002eb003464880004
:104320000002eb00746488001464800004a0a00004
:1043300004b0a0001464880083eca80083cca8001b
:1043400083aca900838ca90001eca8000080fa00ce
:10435000000006000000fa0075348000f40f2c0005
:104360008482620004002100048272007434880098
:104370000002eb00044888000002eb0014488800ab
:104380000448800004a0a10004b0a00004c0a10063
:10439000044888000069a800743a20003448880066
:1043a000e493240024488800044880000400a1000d
:1043b0000410a0000420a0000448880014488000d5
:1043c000f401b300144888000080fa0000000600e1
:1043d0000000fa000368a9002368a9000002eb00ae
:1043e000f40888001e21a900f40880000440a10000
:1043f0000450a000f408880094d02300d40888005a
:104400001fe1a8002368a8000080fa000000060051
:104410000000fa0084322100040078000080fa00d5
:10442000000006000200fa00889fbe008a9fbe00be
:10443000000f78006433210014427800e04f5200ee
:104440001b003a00843221009e0278003504be0031
:104450002505be00089abe000a92be001e02780022
:1044600014027800746188000002eb003461880057
:104470001e02780024029000746288000002eb00a3
:10448000346288001e027800340290007463880051
:104490000002eb00346388001e02780014029000d2
:1044a000346488000002eb00746488000100370067
:1044b000000000004f05be004f04be000080fa005f
:1044c000000006000400fa00889fbe008a9fbe001c
:1044d000000f78001107980064332100144278001f
:1044e000e04f520022003a00843221009e02780000
:1044f0003504be002505be00089abe000a92be0023
:104500001e02780014027800746188001e02780090
:1045100024029000746288001e0278003402900029
:10452000746388001e0278001402900034648800ce
:104530001e0290001405be008a9988009b9988008d
:10454000a4059000ab9988001e0290001402780028
:10455000346288001e0290001402900034618800ca
:104560001e0290002402900074648800010037004d
:10457000000000004f05be004f04be000080fa009e
:10458000000006000200fa00000f78001e0278000a
:1045900014027800e00f520004003d001e02780073
:1045a0008002eb00050a7800080037001e02780040
:1045b0009402780004ee2200848f5200030034003d
:1045c0001e02780005ee2200050a78001e0278001f
:1045d00014029000e00f520004003d001e0278001b
:1045e0008002eb0015029800080037001e027800d8
:1045f0009402900004ee2200848f520003003400e5
:104600001e02780005ee2200150298001e027800b6
:1046100024029000e00f520004003d001e027800ca
:104620008002eb0025029800080037001e02780087
:10463000a402900004ee2200848f52000300340094
:104640001e02780005ee2200250298001e02780066
:1046500034029000e00f520004003d001e0278007a
:104660008002eb0035029800080037001e02780037
:10467000b402900004ee2200848f52000300340044
:104680001e02780005ee2200350298000080fa0034
:10469000000006000000fa0014c0b30004407800d7
:1046a00036f3b7003475200034618800347520007b
:1046b000346288000002eb0034638800e46020006c
:1046c0003464880044e7200074618800e4602000be
:1046d0007462880044e7200074638800c4af20003f
:1046e00074648800743a2000344888000080fa001e
:1046f000000006000000fa000042eb0004407800d1
:1047000036f3b7000080fa0000000600849fbe0068
:10471000861f78000000fa000428a900e4998000b0
:10472000e10f52001b0032000002eb00349a8800b7
:10473000449a80000402e90045138000040342000b
:104740008433210004024300050a7800449a800063
:10475000e20f520009003a0014002000449a880039
:1047600014002000349a880014002000e499880086
:10477000540520004413880007003700449a800045
:104780000402e800449a8800640120004413880071
:1047900001003700000000000080fa004f0378009d
:1047a0004f02be0000400600841f78000000fa009f
:1047b00005c8a90014002000049a88000080fa00af
:1047c0004f02780000400600841f78000000fa00c5
:1047d0000488a90014002000049a88000080fa00d0
:1047e0004f027800004006000000fa000428a900eb
:1047f0002428a9000080fa00000006000000fa004a
:1048000060c2a9000428a900441380000442780073
:10481000e5ff2d00844a78007401200044138800cd
:104820002428a8000080fa00000006000200fa0018
:10483000000f780060c2a9000428a900441380007a
:1048400004427800e5ff2d00844a780084598000f6
:104850000400a0000410a10084598800845980003d
:104860000440a0000450a10084598800e4ff2d00fa
:10487000a45988000002eb00b45988001e02e80029
:10488000f45988000488a9002488a90041aba80035
:10489000e4ef2d00245a88000002eb00345a88000f
:1048a0001e02e900745a880005c8a90025c8a8009e
:1048b00031eba80041eba8000080fa0000000600e0
:1048c0000200fa00000f78001e02e900745a880006
:1048d00041aba900e4df2d000482e800245a8800df
:1048e0000002eb00345a880025c8a80041eba8005c
:1048f0000080fa00000006000000fa0025c8a900a8
:1049000005c8a90041eba9002488a9000488a900d2
:1049100031eba9000080fa00000006000000fa0058
:10492000e4998000e00f520026003200149a8000c3
:10493000e00f520038003a002200200081332100ad
:10494000e0df2d007f060700a7ff0700c499800065
:10495000e00f52000e003a00249a8000e00f52004f
:104960002f003200e4ef2d00144278000482fb0097
:1049700004007800adff070061e2a90061e2a80031
:104980000002eb00349a880043eba80009003700ce
:1049900084332100144278000482fb000400780074
:1049a000c7ff070061e2a90061e2a8000002eb0076
:1049b0004413880014002000f49988000002eb00e2
:1049c000e4998800049a8000e00f5200150032003c
:1049d000c9ff0700c4998000e00f520008003a00a8
:1049e000020037000002eb00249a880004138000c4
:1049f00061026200e00f5200faff3200020037004d
:104a000014002000149a88007cff07000002eb00cd
:104a1000049a8800030037000000000001003700fe
:104a2000000000000080fa00000006000000fa000c
:104a300003000700240007000080fa0000000600c1
:104a40000000fa0021aea80060cea80060eea80029
:104a5000610ea9007536800004f82f008482620080
:104a6000d403200004827200743688007401200090
:104a7000441388000428a9002428a9006382a900ff
:104a80006362a9006342a9006322a9006302a8002f
:104a900062c2a90062a2a90060c2a900041380003a
:104aa0000420a0000430a0000440a10004138800ea
:104ab00062e2a80061e2a8000428a9002428a80056
:104ac0000080fa00000006000000fa0025c8a900d6
:104ad00005c8a90041eba90084262000645a88007b
:104ae00041cba80041aba800045a80000440a100bb
:104af0000450a100045a8800045a80000400a00059
:104b00000410a100045a880014c2b30004407800c5
:104b100042ebb700e4ef2d00245a88000002eb00be
:104b2000345a88000002eb00745a880041eba90057
:104b3000b44280000480a0000490a10004a0a00062
:104b4000b44288002488a9000488a90031eba90098
:104b500084262000e459880031cba80031aba9009d
:104b6000845980000440a1000450a10084598800a9
:104b7000845980000400a0000410a100845988001a
:104b800014c2b3000440780032ebb700e4df2d001c
:104b9000a45988000002eb00b459880094428000b8
:104ba0000400a0000410a1000420a000944288008a
:104bb0000002eb00f459880031eba9000080fa00f4
:104bc000000006000000fa00e4df2d000400780079
:104bd0000080fa00000006000000fa00e4ef2d005b
:104be000040078000080fa00000006000040da00af
:104bf0000000fe00889fbe008a9fbe008c9fbe0002
:104c00008e1f78004400f800080f2000280288005a
:104c10003200f8004600f8004800f8004a00f800aa
:104c20004c00f8004e00f8008a0a2c003a02880076
:104c30002304900058028800130490004802880062
:104c4000530590007a028800430590006a028800ac
:104c5000811f78000f0778003305900007f02f00c0
:104c60000a38e1002b0032000ad0fe000401800067
:104c70000d9b800005002900830490008904d0006a
:104c80000f8544000800310005055500060031007d
:104c90008d844400040031008f8444000200310000
:104ca00084865400120039006305900003029000ce
:104cb000630252000000e9000080080009000000c3
:104cc0003200f80001c0fe00320d78003200f90019
:104cd0004618c300048009004618c4004218c400e6
:104ce0001201c4003100cd00ea019800190037001c
:104cf000830490008f0378008906e9000d80090085
:104d0000b81f7800070478008f07e9005f02880069
:104d10004802880001c0fe00630590000302900075
:104d2000630252000000e900008008000700000054
:104d3000320d7800000000004618c300048009000e
:104d40004618c4004218c4001201c4003100cd004e
:104d5000ea0198008e0778004f0078004e00f900b5
:104d60004c00f9004a00f9004800f9004600f9003b
:104d70003200f9004400f9004f0778004f06be00ea
:104d80004f05be004f04be00000006003200f800d0
:104d900001c0fe00800090000101e900c000900009
:104da0000000200002800900801878003200f9001d
:104db000000006003200f80001c0fe008102d000b1
:104dc0008502e900011878000218780005184100f2
:104dd00003187800041878000518420004087800c9
:104de0003200f90000000600ea874700889fbe00f5
:104df0008a9fbe008c9fbe008e1f78000004be00fc
:104e000002002000037024001e03070080067800c3
:104e1000010678006011b8000800be0079020700a2
:104e2000e00f50003b0035000d0078008c0078004a
:104e3000b702070075020700000378000107780039
:104e4000060078008e00780086bf9f00ab02070046
:104e50000004be000200200003f023000903070045
:104e6000f0b79f00e1b79f00a90207000005be0050
:104e70000801be000d0078008c0378000002780065
:104e8000870278000400be00fc000700800678005e
:104e9000010678000200200003f023000d027800d4
:104ea0008c0278000400be00560207000001780062
:104eb000e00f51007f0034000200200003f82300bf
:104ec0000800be00ee000700500207000003780053
:104ed00001077800860178000e0178000300780051
:104ee00082007800f2ff2700820f5000e08f580008
:104ef00002003400f0ff2700010020004f07780077
:104f00004f06be004f05be004f04be00af00b1000b
:104f1000000006000d0078008c007800b701070043
:104f20003a020700f0b79f00010778008e00780072
:104f3000720207000004be000d0178008c017800a9
:104f40000800be007a02070000017800e00f51005f
:104f50000a0032000200200003f823000800be000f
:104f6000c600070029020700f0b79f00010778007c
:104f70008e007800610207000004be0002002000dd
:104f800003f023000800be00be020700e0b79f0048
:104f9000d1b79f005e0207000005be000801be00f9
:104fa0000c03be0007027800860278000400be00f1
:104fb000b200070080067800010678000200200099
:104fc00003f023000d0278008c0278000400be007c
:104fd0000c02070000017800e00f510018003400b7
:104fe0000200200003f823000800be00a400070010
:104ff00006020700f0b79f0001077800ffb1970095
:105000000e0178000300780082007800020028007a
:10501000f3ff2f00820f5000838f5800b7ff3d0031
:105020000200be004f0778004f06be004f05be00cd
:105030004f04be00af00b10000000600b5ff37000e
:105040000200200003f023000c00be0001027800e3
:10505000800278000400be00e80107000006780026
:10506000e00f5600e5ff3a000a01be00efb29700dc
:105070005fb2970005007800840078007f00070089
:105080000001be007e000700e00107008c0f500009
:10509000daff32000200200003f823000800be00ff
:1050a00077000700d9010700f0b79f0001077800db
:1050b000d2ff37000200200003f023000c00be00e6
:1050c00001027800800278000400be00cb010700d6
:1050d000000678000fbb9700e00f56007dff3a00f6
:1050e0000a01be00ffb297006fb29700050078007a
:1050f00084007800610007000001be006000070026
:10510000c20107000fbb97008c0f500071ff3200e7
:105110000200200003f823000800be00580007002a
:10512000ba010700000378000107780069ff370023
:10513000cf80de00f1010700020020000380230081
:105140005002070080017800010178000300780018
:1051500082007800000006000000fa0006a2a90004
:105160000682a8000080fa00000006000000fa0095
:10517000040024000602ab00feff3a000642ab002a
:10518000fcff3a000662ab00faff3a000622ab00d1
:10519000f8ff3a000682ab00f6ff3a0046108000a6
:1051a00086026200e08f5200f2ff3a000080fa00af
:1051b000000006000000fa000662a8000662ab00cc
:1051c000feff3a0008c2a900001080000080fa002b
:1051d000000006000000fa000080fb0010108800ac
:1051e000441080000408b20000c0eb000b003a003d
:1051f000040024004610800086026200e08f520006
:10520000fcff3a00d9ff0700000028000802b600a2
:10521000e00f500001003200e0cfb3000080fa0040
:10522000000006000000fa0006a2a8000682a800fe
:105230000080fa00000006000000fa00211088003b
:10524000301088000080fa00000006000000fa001c
:105250000622a8000080fa00000006000000fa0004
:105260000602a8000080fa00000006000000fa0014
:105270000642a8000080fa000000060003f0a20029
:10528000889fbe008a9fbe008c1f7800e501070042
:10529000ec0133006450e1004f0032006420e10073
:1052a0005200320003826c0007003b000905d00069
:1052b0000306d000820f54000c065d000200390086
:1052c00002003200890178000306780085825500cb
:1052d00004003d000003fd008103fd008502ea009b
:1052e0008b854200840f720002003b0060001000ba
:1052f000e08018006011b8000005eb007a28e1009a
:105300000a00390006007800c75ddd00f707b2002b
:10531000878075002d003700828171000a017800b6
:10532000610560008180d1000080d3008502e90022
:10533000f9ff3b00060440008784480002003b0060
:1053400060041400e0841c000988a30007003200f8
:105350008a81710082817100610164008904d10039
:105360000884d3008b05e800170037000978a300f4
:1053700013003a000b00e000130034008b05e90035
:105380000804440089844c000a4474000978a3008e
:105390000d003a000b00e000070034008b05e90027
:1053a0000804440089844c0001003a000b002000ee
:1053b0000978a300f7ff32000001eb00020037007c
:1053c000828171000a0178005b0107000cf0a700e0
:1053d00001f0a000a40137006420e10002003a00bf
:1053e000838f6c00a40133000801be000200be00e0
:1053f0009d013700889fbe008a9fbe008c1f7800e9
:10540000880107001002200002003b00e09a88009b
:105410008c0137008a0062006408e10002003a0053
:10542000e09a8800940137006108e100fcff320037
:105430000800be00030478007800070001f0a10016
:105440000900070008f0a600040037000001be00b4
:1054500091042400b0fd200088ff070009f0a70098
:1054600001f0a20080013700889fbe008a9fbe0025
:105470008c9fbe000004be00550107000800be005e
:10548000890678006420e100080039000400320039
:105490000160a00012022000e29a88005300370049
:1054a00091fc2300b0fd20004e0037000006eb0009
:1054b00009f0a10003f82300020020000800be004c
:1054c000ce0007000600340001f823000000200091
:1054d0000801be00510007000004be002c0020009f
:1054e0000800be0093e82300320a2300c30007002f
:1054f000120034000801be00d1fd2300703d2b00d6
:105500005fff07000005be00b3f32300f27a260018
:105510000800be005b01070003f823000200200022
:1055200056ff07000801be0055ff07000a01be0034
:105530003a0007000004be000c06e8000800be00a8
:1055400001f0a1000200200003982300ab00070037
:105550000800be00160035000801be004901070022
:105560000005be0032cd2c0043fb230044ff0700a2
:10557000809fbe001269280003d52b000a00be00e0
:1055800040010700620f210013ef2b003cff0700d2
:105590000a01be003b0107004f01be001f000700cb
:1055a0000801be00370107000801be0034ff0700f4
:1055b0000c00e0000b0032000c10a70001f0a2006c
:1055c000b2fd200093fc23006260e1000400320081
:1055d00022a9200063f023000c10a70063f8230029
:1055e00027ff07000df0a70001f0a2004f06be0044
:1055f0004f05be004f04be00000006000001eb0096
:1056000057000700040032000200200003f82300c6
:1056100001f0a6001aff070000000600889fbe00e8
:105620008a9fbe008c1f7800fe0007000501330032
:1056300003866c006450e1002e0032006420e1001b
:10564000330032006150e1002f0032006120e100a0
:105650003100320085855500eb07b00009002000bd
:1056600008042000050037000804440089844c0029
:105670000a0031000603430087834b0000015300fa
:1056800081815b00f8ff33000203be000800a00028
:105690000804440089844c00f6ff3900c639dd0057
:1056a0008301730001003200130020008904d1003f
:1056b0000884d3000998a300050032000800a70061
:1056c0000300a0008904d1000884d3008b05e80002
:1056d0008904d1000884d3000001eb000281d200cc
:1056e0009500070001f0a1000cf0a70001f0a00058
:1056f000dd0037006420e100df0032000801be0059
:105700000200be00f7ff37006120e100da0032003e
:105710006000b800f3ff37000000200001f8270008
:10572000f0ff3700839f68000100e00002003d00a9
:1057300060001000e08018000300e00002003d005f
:1057400060011100e0811900370107004f00e000ff
:1057500002003b0060001000e0801800000006001e
:10576000889fbe008a9fbe000003be00980007000d
:105770008505780082815200020020006220e1004d
:1057800004003a00f307b100040035007718e10087
:10579000040035000600be00140037006000b800a9
:1057a0000f003700f50f2000faff2f008502d1000f
:1057b0000a85d3008301e900fcff3b00818462007d
:1057c00000046500890f7400f2ff32008582ea0050
:1057d0000a85ea0081846200000465005600070023
:1057e00007f0a70001f0a0000081eb000200e0003c
:1057f0004f05be004f04be0000000600140020004c
:1058000054023700f4ff2f00520237000001be009f
:105810006f0007000470a70003f0a1006509b10044
:10582000160032000d0035006828e1000600350042
:10583000f0ff2f00f1ff27000300e00013003b0002
:1058400001002800000005000000400081804800a1
:105850008502e900fcff3a0008003700f88f42009b
:1058600002003c008000eb00000005008100d10038
:105870000080d3008502e800fcff3a000300e0004e
:1058800002003b0060001000e080180000000600ed
:105890000001be004e0007000470a70003f0a10045
:1058a00003f8a30013003a006509b10010003200ac
:1058b000090035006928e1000200350001002800d8
:1058c0000000050000004000818048008502e900da
:1058d000fcff3a0000000600f88f4200050035008a
:1058e0008100d1000080d3008502e800fcff3a006f
:1058f000000006008000eb00000005004f89de007c
:10590000820178002e0237006011b8003c02370097
:105910000001eb0092ff07000400320002002000ab
:1059200003f8230001f0a70054fe07000000060062
:10593000040020000702370081002000618055002c
:105940000b003d000b00200061fe2f000100e10074
:105950001d00340082817100610164008904d1005e
:105960000884d3000000e800faff3a00710020002c
:105970006100640003007000020060000900320052
:1059800061044400e0844c000988a5000500320051
:105990008b05e8006808e10002003a008904d100a4
:1059a0000884d300f20f20000258e10005003d00fa
:1059b000c75ddd00f907b200898075000800780036
:1059c000000006000bf827008b007800000005009f
:1059d000c70ade00f107b200f50fb200080032007e
:1059e000e1cf4200020032000170a0002400050057
:1059f000810f70000100320004080500440005001a
:105a0000810f700002003a00140005008502e900d1
:105a10000000400081c04800fcff3b000170a00076
:105a2000240005000004be00e9ff07000003be00db
:105a30000405be000200be00e5ff0700844f7500ac
:105a4000000006000200be006450e10005003600c0
:105a50006420e100020036000968a30001003a005a
:105a60000800be000160a0004f0678004f05be0090
:105a70004f04be0000000600f0ff2f00f1ff2700da
:105a8000f9ff3700889fbe008a9fbe008c1f7800f8
:105a9000e4ff0700ebff330003866c006450e10075
:105aa000240032006420e100270032006150e10050
:105ab000220032006120e100210032008b8542008b
:105ac000eb07b1000134b800003ab8000804420006
:105ad00089844a00013ab8000030b800888040004c
:105ae00009014a00040033000000400081804800a2
:105af000020149008b05e900c909dd00830170003e
:105b00000100320013002000c814de004814dd003c
:105b10004709de001200b200c808de0008847000e9
:105b200085ff070001f0a1000cf0a70001f0a00024
:105b3000cdff37006120e100cfff32000801be0039
:105b40000200be00f7ff37006150e100fcff3a00a1
:105b5000c9ff3700889fbe008a9fbe008c1f780057
:105b60000004be009aff07000478a30026003a0054
:105b70006120e1002500320009f8a30025003a0069
:105b80006420e10021003200f507b1000508a30000
:105b90000200320000004000818048006044b800ec
:105ba0000310200002002000000040008180480017
:105bb0000805440089854c000a0541008b85490091
:105bc0000a0550008b855800030033000a00be0010
:105bd00002047400838474008301d1000281d30025
:105be000830f7100f0ff3a008904d1000884d300cc
:105bf0006001490082017800c1adde00fb07b00002
:105c00004dff070098ff37000960a0000800be00a4
:105c100095ff370012022000e29a8800f0ff2f0063
:105c2000f1ff270090ff37006022b8000602200035
:105c30000000d0008180d2000482d2008582d20090
:105c40000000a0000202520083825a0003003100cb
:105c50000202420083824a000000a1000603e9001c
